{
  "contractName": "Helloworld",
  "abi": [
    {
      "constant": true,
      "inputs": [],
      "name": "age",
      "outputs": [
        {
          "name": "",
          "type": "uint256"
        }
      ],
      "payable": false,
      "stateMutability": "view",
      "type": "function"
    },
    {
      "constant": true,
      "inputs": [],
      "name": "fName",
      "outputs": [
        {
          "name": "",
          "type": "string"
        }
      ],
      "payable": false,
      "stateMutability": "view",
      "type": "function"
    },
    {
      "constant": false,
      "inputs": [
        {
          "name": "_fName",
          "type": "string"
        },
        {
          "name": "_age",
          "type": "uint256"
        }
      ],
      "name": "setInstructor",
      "outputs": [],
      "payable": false,
      "stateMutability": "nonpayable",
      "type": "function"
    },
    {
      "constant": true,
      "inputs": [],
      "name": "getInstructor",
      "outputs": [
        {
          "name": "",
          "type": "string"
        },
        {
          "name": "",
          "type": "uint256"
        }
      ],
      "payable": false,
      "stateMutability": "view",
      "type": "function"
    }
  ],
  "bytecode": "0x608060405234801561001057600080fd5b5061046f806100206000396000f300608060405260043610610062576000357c0100000000000000000000000000000000000000000000000000000000900463ffffffff16806322faf03a14610067578063262a9dff146100da5780633c1b81a5146101055780639e656a411461019c575b600080fd5b34801561007357600080fd5b506100d8600480360381019080803590602001908201803590602001908080601f01602080910402602001604051908101604052809392919081815260200183838082843782019150505050505091929192908035906020019092919050505061022c565b005b3480156100e657600080fd5b506100ef61024e565b6040518082815260200191505060405180910390f35b34801561011157600080fd5b5061011a610254565b6040518080602001838152602001828103825284818151815260200191508051906020019080838360005b83811015610160578082015181840152602081019050610145565b50505050905090810190601f16801561018d5780820380516001836020036101000a031916815260200191505b50935050505060405180910390f35b3480156101a857600080fd5b506101b1610300565b6040518080602001828103825283818151815260200191508051906020019080838360005b838110156101f15780820151818401526020810190506101d6565b50505050905090810190601f16801561021e5780820380516001836020036101000a031916815260200191505b509250505060405180910390f35b816000908051906020019061024292919061039e565b50806001819055505050565b60015481565b6060600080600154818054600181600116156101000203166002900480601f0160208091040260200160405190810160405280929190818152602001828054600181600116156101000203166002900480156102f15780601f106102c6576101008083540402835291602001916102f1565b820191906000526020600020905b8154815290600101906020018083116102d457829003601f168201915b50505050509150915091509091565b60008054600181600116156101000203166002900480601f0160208091040260200160405190810160405280929190818152602001828054600181600116156101000203166002900480156103965780601f1061036b57610100808354040283529160200191610396565b820191906000526020600020905b81548152906001019060200180831161037957829003601f168201915b505050505081565b828054600181600116156101000203166002900490600052602060002090601f016020900481019282601f106103df57805160ff191683800117855561040d565b8280016001018555821561040d579182015b8281111561040c5782518255916020019190600101906103f1565b5b50905061041a919061041e565b5090565b61044091905b8082111561043c576000816000905550600101610424565b5090565b905600a165627a7a7230582095eeee0c837beb6bc2555b21e2c6f6337de2e3c9be9e3afca3e258a0805548b30029",
  "source": "pragma solidity ^0.4.18;\ncontract Helloworld {\n    \n   string public fName ;\n   uint public age ; // since age can not be nagative\n     function setInstructor(string _fName, uint _age) public {\n       fName = _fName;\n       age = _age;\n   }\n   \n   function getInstructor() public constant returns (string, uint) {\n       return (fName, age);\n   }\n    \n}",
  "sourcePath": "/Users/saifrehman/Desktop/Solidity-Tutorials/2.Deploying-smartcontract-to-ethereum-testnet/helloworld/contracts/Helloworld.sol",
  "compiler": {
    "name": "solc",
    "version": "0.4.24+commit.e67f0147.Emscripten.clang"
  },
  "schemaVersion": "2.0.1",
  "updatedAt": "2018-06-21T07:56:36.786Z"
}